:020000040800F2
:1000000040080020B5010008691F0008611F0008B2
:10001000651F000895030008891F00080000000004
:10002000000000000000000000000000711F000838
:10003000A5030008000000006D1F0008751F0008E0
:10004000CF010008CF010008CF010008CF01000850
:10005000CF010008CF010008CF010008CF01000840
:10006000CF010008CF010008CF0100089903000864
:10007000CF010008CF010008CF010008CF01000820
:10008000CF010008CF010008CF010008CF01000810
:10009000CF010008CF010008CF010008CF01000800
:1000A000CF0100087D1F0008CF010008CF01000824
:1000B000CF010008CF010008CF010008CF010008E0
:1000C000CF010008CF010008CF010008CF010008D0
:1000D000CF010008CF010008CF010008CF010008C0
:1000E000CF010008CF010008CF01000800F002F89E
:1000F00000F050F814A696E8000CB244B344DA4578
:1001000001D100F047F8BAE80F000FA696E83000DA
:10011000A5EB040504EB0607AAEB0704A7F101070A
:100120004FEA15154FEA3414A4F10104AC4201D38F
:1001300000F030F813F0010F18BFFB1A43F0010371
:1001400000F001F8DBE71847D03E0000F03E000069
:10015000103A24BF78C878C1FAD8520724BF30C8F3
:1001600030C144BF04680C60704700007047000055
:100170000023002400250026103A28BF78C1FBD8B0
:10018000520728BF30C148BF0B6070471FB51FBD65
:1001900010B510BD00F031F81146FFF7F7FF02F07F
:1001A000E1FC00F04FF803B4FFF7F2FF03BC00F0EE
:1001B00057F800000948804709480047FEE7FEE776
:1001C000FEE7FEE7FEE7FEE7FEE7FEE7FEE7FEE707
:1001D00004480549054A064B70470000791F00088E
:1001E000ED000008400200204008002040040020EC
:1001F00040040020704770477047754600F02CF8A7
:10020000AE4605006946534620F00700854618B003
:1002100020B5FFF7DDFFBDE820404FF000064FF0AE
:1002200000074FF000084FF0000BAC46ACE8C009E7
:10023000ACE8C009ACE8C009ACE8C00921F007018E
:100240008D46704710B50446AFF300802046BDE8E8
:100250001040FFF7A8BF00000048704720000020B2
:1002600001491820ABBEFEE72600020070470000DF
:100270000146406A826A12F0500F03D0006A026B96
:10028000084610470168826A42F4007282628968F7
:1002900001F46021B1F5602F01D1017B11B100F0B3
:1002A00045B900BF816A21F480718162816AC90405
:1002B00048BF00F03BB9816A41F00101816200F062
:1002C00035B90000406A816A41F040018162C16A2B
:1002D00041F00401C16200F02DB90000406A00F055
:1002E00027B90000B0B582B0044600200190216813
:1002F0008A68D2074BD1886840F00100886040F2DC
:100300001800C2F2000000684DF68361C4F21B3190
:10031000A0FB0101880C01900198A0B1019801385F
:100320000190019878B1019801380190019850B17D
:10033000019801380190019828B101980138019085
:1003400001980028EAD100F0FBFC21688968C90700
:100350001CD1054603E000BF8068C00716D100F03D
:10036000EFFC411B20680329F6D38168C907F3D14C
:10037000A06A40F01000A062E06A40F00100E06274
:10038000002084F82400012002B0B0BD002002B09B
:10039000B0BD0000FEE7000040F26410C2F20000B1
:1003A00000F05EBA70470000EFF3108072B600BF35
:1003B000FEE7000010B581B00022009290F82420E2
:1003C000012A03D10221084601B010BD4B68012269
:1003D000062B80F8242033D8D0F800C003EB830329
:1003E0005A1F1F23DCF834E003FA02F40B682EEAEC
:1003F000040403FA02F22243CCF83420092B03EB65
:10040000430249D9DCF80CE01E3A0724896894407D
:100410002EEA0404914023F001022143102ACCF873
:100420000C1043D142F20841C4F20101A1F10802CB
:10043000944543D0816A41F020018162012136E078
:10044000D0F800C00C2B03EB830213D8233A1F23F0
:10045000DCF830E003FA02F40B682EEA040403FA35
:1004600002F22243CCF83020092B03EB4302C9D817
:1004700012E000BF413A1F23DCF82CE003FA02F43B
:100480000B682EEA040403FA02F22243CCF82C2073
:10049000092B03EB4302B5D8DCF810300724896838
:1004A0009440A34391401943CCF81010002100223E
:1004B00080F82420084601B010BD00BF0A6812026F
:1004C000F4D40A68102B42F400020A60EED140F224
:1004D0001801C2F2000109684DF68362C4F21B32B2
:1004E000A1FB0212910C01EB8101490000910099DE
:1004F0000029DBD000990139009100990029D5D05D
:1005000000990139009100990029CFD00099013953
:10051000009100990029C9D00099013900910099F2
:1005200000294FF00001E5D1C1E70000704700004D
:100530007047000070470000002804BF012070478A
:10054000B0B50446806A28B121688868C0070CD11C
:1005500015E000BF0020E06284F82400204600F08F
:1005600097F821688868C00709D0886820F00100E2
:10057000886000F0E5FB21688A68D20726D1A06A6E
:10058000C0063AD4A06A41F2021290430230A0623F
:10059000E069D4E9013240EA030C531EB3FA83F355
:1005A0005D091346B2F5807F18BF2B02207D257BA5
:1005B00001284CEA45002CD135B3A56A45F0200549
:1005C000A562E56A45F00105E56222E0054602E024
:1005D0008868C007D3D000F0B3FB401B2168032814
:1005E000F6D38868C007F3D0A06A40F01000A0627C
:1005F000E06A40F00100E062A06AA06A40F01000EA
:10060000A0620120B0BD00BFA56903EB4533A3F58F
:10061000C0534D68B2F5807F25F4694543EA050370
:100620004B608B684FF2FD75CFF6E17503EA050369
:1006300043EA00038B6001D0012A07D1226900231D
:10064000CFF6F07303EB025201E000BF0022CB6A49
:1006500023F470031A43CA62896840F6FE62CFF63B
:100660001F721140814207D10020E062A16A01227D
:1006700062F30101A162B0BDA06A40F0100020F059
:100680000200A062E06A40F00100E0620120B0BD1B
:1006900070B586B0044640F60000C4F2010021683F
:1006A00000F5E052002691420596CDE903660296D8
:1006B00002D006B070BD00BF41F21801C4F20201C1
:1006C0000A6842F400720A600A6802F40072019239
:1006D000019A0A6842F004020A60096801F0040104
:1006E00001910199FF2102910321039102A900F0D8
:1006F00019FA40F264150820C2F20005C4F20200A3
:100700004FF48072C5E9000605F1100080214FF416
:1007100080634FF0200C4FF4805E80E80C50284638
:10072000C5E9026100F06CF9002818BFFFF73CFE34
:1007300025626C6206B070BDF0B581B0036842F608
:100740000006C4F20106B34205D042F20046C4F2EC
:100750000106B3420AD142F20443C4F201031B680A
:1007600013F4702F02D0012001B0F0BD90F82430B6
:10077000012B03D1022001B0F0BD00BF0D460121C5
:10078000174680F824100646FFF7ACFD30B1002074
:1007900086F82400012001B0F0BD00BF42F2044001
:1007A0003168B36AC4F20100324640F60176B343C1
:1007B00000F57F7603F58073B142936244D0906A6E
:1007C00020F4801090624868400504D5906A0123A7
:1007D00063F30D309062936A0020DB044FF0000356
:1007E00044BFD36A23F00603D36282F82400106A60
:1007F00040F2712340F2DD26C0F60003C0F6000689
:1008000040F2C524C0F60004C0E90A366FF00203C6
:1008100004630B608B68144643F480738B604C3127
:100820002A463B4600F02EF92068816801F46022D8
:100830008168B2F5602F0CBF41F4A00141F4801132
:100840008160002001B0F0BD036813F4702FB6D0B2
:10085000936A43F48013936200684005B6D4BAE704
:1008600010B5D0E90FCE0168DCF800300A6823FA31
:100870000EF35C072AD512F0040427D00A6892060A
:1008800003D40A6822F004020A602F22C4F2020292
:10089000914240F20402C4F202025BDD3023C4F252
:1008A0000203994272D04423C4F20203994273D0E6
:1008B0005823C4F20203994240F07A804FF4802317
:1008C0001360C16A002940F098806FE09C0727D52B
:1008D00012F0020424D00A68920606D40A6822F0B4
:1008E0000A020A60012280F821202F22C4F20202AB
:1008F000914240F20402C4F202023BDD3023C4F212
:100900000203994260D04423C4F2020399425FD0AB
:100910005823C4F20203994260D14FF4003365E0DA
:100920001B0743D512F0080208BF10BD0A6822F069
:100930000E020A60012101FA0EF2CCF80420816354
:1009400080F82110016B0022002980F8202054D16A
:100950002CE000BF0823C4F20203994222D01C23DA
:10096000C4F20203994223D140231360C16A0029D3
:1009700043D11BE00823C4F2020399422CD01C236C
:10098000C4F20203994229D120232FE04FF480635F
:100990001360C16A89BB09E04FF480431360C16AE8
:1009A00059BB03E004231360C16A31BB10BD00BF13
:1009B00002F168044FF08063A14208BF4FF4800346
:1009C0001360C16AC9B9F1E74FF400730EE000BFCC
:1009D0004FF400530AE000BF022307E002F168046D
:1009E0004FF00073A14208BF4FF400131360816AF7
:1009F0000022002980F82020D8D0BDE81040084708
:100A0000014600284FF0010008BF70472DE9F04370
:100A1000D1F800C04FF6F873CBF6FD734CF6CD421B
:100A20006344CCF6CC42A3FB02236FF0030202EA3C
:100A300093020023C4F2020301F10C08C1E90F3252
:100A40000222D1E9019E98E8F00181F82120DCF82A
:100A5000002043F6F0739A4342EA090242EA0E028A
:100A600022432A4332433A4342EA0802CCF80020A8
:100A700000228A6381F8210081F820200020BDE84F
:100A8000F043704790F820C0BCF1010F04BF022072
:100A90007047F0B54FF0010E80F820E090F821C0CB
:100AA000BCF1010F26D14FF0020C80F821C04FF0AD
:100AB000000CC0F838C0D0E900C4C56AC66BDCF8C9
:100AC0000070102C27F00107CCF80070006C0EFAB3
:100AD00000F070600846CCF8043004BF10460A46A7
:100AE000CCF80800CCF80C20DCF8000045B140F050
:100AF0000E000DE0002180F820100220F0BD00BFA4
:100B000020F00400CCF80000DCF8000040F00A00FF
:100B1000CCF80000DCF8000040F00100CCF8000048
:100B20000020F0BD2DE9F04F82B00E68002E00F0DD
:100B3000FD8041F20042C4F20102042340F2004E63
:100B4000904208BF03234FF6FF7CC4F2010E0093CE
:100B500000240123C1F2100C4FF0000A4FF00009ED
:100B60004BE000BF41F20002C4F20102009F90423C
:100B700008BF022704F00C030F229A402BEA02025E
:100B800007FA03F34FEA9A051A4346F825204E6800
:100B900040F20C45F202DEF8082054BF22EA0802B7
:100BA00042EA0802C4F20105CEF808202A68B3021E
:100BB00054BF22EA080242EA08022A60B303DEF8C0
:100BC000042054BF22EA080242EA0802F303CEF8E6
:100BD0000420DEF800204FF0010354BF22EA08028F
:100BE00042EA0802CEF800200E680AF1010A36FA3D
:100BF0000AF204F1040400F0998003FA0AFB16EAF1
:100C00000B08F1D04E68664512DC122E56D8DFE88C
:100C100006F0350B4D4955555555555555555555B6
:100C200055555545510000BFD1F80C9046E000BF26
:100C30004FF6FF72C1F2210296420FDC0022C1F290
:100C4000110296421AD00022C1F21202964215D029
:100C50000022C1F22102964210D02FE00022C1F200
:100C6000220296420AD00022C1F23102964205D0F9
:100C70000022C1F23202964220D100BF8A684AB1F6
:100C8000012A14BFC0F814B0C0F810B04FF0080922
:100C900014E000BF4FF0040910E000BFCA6802F181
:100CA00004090BE04FF0000908E000BFCA6802F138
:100CB000080903E0CA6802F10C0900BF0246264693
:100CC000B8F5807F24BF0432203E17680F25B54059
:100CD00027EA050509FA06F635431560CA79D206F2
:100CE0007FF582AF41F21803C4F202031A68AEF531
:100CF0007E7642F001021A601A6802F00102019247
:100D0000019A2AF0030256F802B040F60002C4F23B
:100D10000102904208D040F60042C4F20102904223
:100D20007FF420AF012725E7002723E702B0BDE8C5
:100D3000F08F0000002A08BF09040161704700001D
:100D400040F23820C2F200000068704740F2000014
:100D500040F23821C2F20000C2F2000100780A68B5
:100D6000104408607047000080B542F20000C4F2F1
:100D70000200016841F010010160032000F08CF8CE
:100D80000F2000F005F800F027F8002080BD0000DB
:100D900070B540F20006C2F2000640F21801327847
:100DA000C2F200014FF47A730968B3FBF2F2044611
:100DB000B1FBF2F1084600F0DFFB0F2C4FF001050C
:100DC00008D838B94FF0FF3021460022002500F046
:100DD00037F87460284670BD82B041F21800C4F242
:100DE00002000168022241F001010160016801F086
:100DF000010101910199416841F0805141604068D1
:100E000000F08050009000980420C4F201000168B6
:100E100062F31A61016002B070470000002848BF09
:100E2000704700F01F01012202FA01F11C2202EAC0
:100E3000D0004EF20012CEF2000281507047000046
:100E400010B54EF60C5CCEF2000CDCF80030C3F3AB
:100E5000022E8EF00704042C28BF0424BEF10303E5
:100E60004FF0FF3E0EFA04F438BF0023A14399402F
:100E70000EFA03F39A43114300F00F0200F16043AE
:100E80000901043A03F564436244002848BF02F1B3
:100E90000C03197010BD00004EF60C51CEF200018B
:100EA0000A684FF6FF031A4060F30A2242F080609E
:100EB00040F0FD70086070472DE9F04182B00446B3
:100EC000007841F21C06C007C4F202064AD030681E
:100ED0005FEAC00808D4306840F080503060306865
:100EE00000F080500190019847F20007C4F200071B
:100EF0003868C00512D4386840F480703860FFF755
:100F00001FFF05463868C00508D4FFF719FF401BCE
:100F10006428F7D9032002B0BDE8F081706810F4AE
:100F2000407012D0616801F4407188420DD0706841
:100F300040F24042C4F24222012320F44071136087
:100F40000023C0071360716026D17068616820F4C7
:100F500040700843B8F1000F706003D4306820F08F
:100F6000805030602068810707D556F8181CA268A9
:100F700021F44041114346F8181CC00607D556F825
:100F8000180CE16820F48000084346F8180C002093
:100F900002B0BDE8F08100BFFFF7D2FE054641F286
:100FA000883700BF70688007CFD4FFF7C9FE401BA9
:100FB000B8424FF00300F5D9EAE70000002804BF6B
:100FC000012070472DE9F04381B042F20008C4F2DD
:100FD00002080446D8F800000D4600F007008842D9
:100FE0000CD2D8F8000020F007002843C8F8000011
:100FF000D8F8000000F00700A8426CD1206841F248
:1010000004098107C4F2020917D5410705D5D9F8AB
:10101000001041F4E061C9F80010010705D5D9F8C6
:10102000001041F46051C9F80010D9F80010A2680E
:1010300021F0F0011143C9F80010C00742D1D8F8DF
:10104000000000F00700A8420CD9D8F8000020F0FA
:1010500007002843C8F80000D8F8000000F0070097
:10106000A84238D12068410707D5D9F80010E268B6
:1010700021F4E0611143C9F80010000708D5D9F840
:101080000000216920F4605040EAC100C9F8000066
:10109000D9F8002002F00C00082841F20020C0F22C
:1010A0007A004DD144F20803C2F38341C0F6000335
:1010B000595CD20338D440F60010C0F23D004843DA
:1010C0003EE000BF606859F8041C022808D00128DF
:1010D00026D1890306D4012001B0BDE8F08300BF0A
:1010E0008901F8D5D9F8001021F003010843C9F8A7
:1010F0000000FFF725FE064641F28837D9F80000C8
:10110000616800F00C00B0EB810F98D0FFF718FE7B
:10111000801BB842F2D9032001B0BDE8F08300BFC4
:101120008907D8D5DEE700BFD9F8002044F20603CE
:10113000C2F34042C0F600039A5C4843B0FBF2F0B1
:10114000D9F8001043F6F672C1F30311C0F600029D
:10115000515C40F2180220FA01F140F20400C2F2A0
:1011600000000068C2F200021160FFF711FE0020CB
:1011700001B0BDE8F0830000002804BF01207047E3
:101180002DE9F04182B00446007841F20006C00724
:10119000C4F202060CD0706800F00C00042840F085
:1011A00081803068800303D56068002800F04681A4
:1011B000207880071BD5706810F00C0F09D070687C
:1011C00000F00C00082840F087807068C00300F130
:1011D00083803068800703D52069012840F02E8184
:1011E0003068616920F0F80040EAC1003060207882
:1011F000000713D4207840072CD4E569002D00F0B7
:101200001881706800F00C00082840F0A780012DBC
:1012100040F00481012002B0BDE8F081A0690028FF
:1012200000F084800020C4F242200121C0F8801424
:10123000FFF786FD054600BF706A800700F1B280A7
:10124000FFF77EFD401B0228F6D9032002B0BDE85F
:10125000F08100BFF0695FEAC00808D4F06940F08F
:101260008050F061F06900F080500090009847F2E3
:101270000007C4F200073868C00549D4386840F454
:1012800080703860FFF75CFD054600BF3868C00518
:101290003ED4FFF755FD401B6428F7D9032002B068
:1012A000BDE8F081706800F00C00082803D1706878
:1012B000C0033FF576AF61683068002900F00C810B
:1012C000B1F5A02F00F00081B1F5803F40F01A8108
:1012D00040F480301CE100BF2069002840F200008B
:1012E000C4F2422000F0888001210160FFF728FD50
:1012F000054600BF306880073FF572AFFFF720FD5D
:10130000401B0228F6D9032002B0BDE8F08100BFDF
:10131000E168306A002900F09D80052900F0928084
:10132000012940F0AF8040F00100B1E00020C4F29C
:1013300042200021C0F88014FFF702FD054600BFDF
:10134000706A80077FF556AFFFF7FAFC401B022852
:10135000F6D9032002B0BDE8F08100BF0027C4F237
:10136000422700203866FFF7EBFC022D05460DD121
:101370003068800140F1DE80FFF7E2FC401B02286C
:101380004FF00300F4D902B0BDE8F081306880016D
:101390004FD5FFF7D5FC401B02284FF00300F5D9CD
:1013A000F1E700BF40F21800C2F20000006844F606
:1013B000D351C1F26201A0FB0101480A019000BFB4
:1013C00000BF0198411E002801913FF413AF00BFF8
:1013D0000198411E002801913FF40CAF00BF019815
:1013E000411E002801913FF405AF00BF0198411E46
:1013F00000280191E4D1FDE600210160FFF7A0FC87
:10140000054600BF306880077FF5F1AEFFF798FC16
:10141000401B02284FF00300F4D9B4E77068216A3A
:1014200000F480328A4209D1616A00F47010884267
:1014300004D1002002B0BDE8F08100BF012002B05D
:10144000BDE8F08140F004003062306A40F00100F5
:101450001EE000BF20F001003062306A20F004007E
:101460003062FFF76DFC054641F28837306A80072D
:1014700020D5FFF765FC401BB8424FF00300F5D9BB
:1014800081E700BF20F001003062306A20F00400E4
:101490003062FFF755FC054641F28837306A800715
:1014A00008D4FFF74DFC401BB842F7D9032002B027
:1014B000BDE8F081B8F1000F3FF59FAEF06920F074
:1014C0008050F06199E600BF40F4802030603068C1
:1014D00040F480301CE000BF20F480303060306881
:1014E00020F480203060FFF72BFC05463068800335
:1014F0007FF55EAEFFF724FC401B64284FF003002D
:10150000F4D940E720F480303060306820F4802047
:101510003060FFF715FC0546306880033FF548AEA4
:10152000FFF70EFC401B6428F6D9032002B0BDE88B
:10153000F08100BF206AB0F5803F05D17168A268D4
:1015400021F40031114371607168626A21F47411F1
:1015500011430843706001203866FFF7F1FB044631
:10156000306880013FF565AFFFF7EAFB001B0228FA
:101570004FF00300F4D906E7411E0020B0EB116FD5
:101580001CBF012070474EF21002CEF200025160E3
:101590004EF62351CEF20001F0230B70072190602C
:1015A00011607047704700007047000090F83C20C1
:1015B000012A4FF0020236D010B580F83D200268B3
:1015C000D2F804E0D2F808C00C682EF07003234370
:1015D00040F2FF74C4F20004A24253600ADCB2F18C
:1015E000804F13D040F20043C4F200039A420DD062
:1015F00011E000BF42F60043C4F201039A4205D055
:1016000040F60003C4F200039A4204D149682CF06A
:101610008003194391600121002280F83D1080F879
:101620003C20BDE81040104670470000002804BF71
:101630000120704710B590F83D1031B9002180F8B5
:101640003C10044600F068F82046022180F83D1066
:10165000016840F2FF740B68C4F2000442F6004CCB
:10166000A142C4F2010C15DCB1F1804F1AD040F256
:101670000042C4F20002914214D0A14218DCB1F140
:10168000804F1DD040F20042C4F20002914217D0B8
:101690001AE000BF614505D040F60002C4F2000226
:1016A0009142EAD1826823F070031343A142E6DD40
:1016B000614505D040F60002C4F20002914203D118
:1016C000026923F440731343846923F08002D0F845
:1016D00004E0C368224361450A60CB62C1F828E098
:1016E00002D14269CCF8302001224A6180F84620BC
:1016F00080F83E2080F83F2080F8402080F841208C
:1017000080F8422080F8432080F8442080F845206B
:1017100080F83D20002010BD006842F60041C4F270
:101720000101884218BF704780B582B041F21800AD
:10173000C4F202000168002241F400610160006807
:10174000012100F40060019001981920FFF778FB57
:10175000192002B0BDE88040FFF760BB90F83D1053
:1017600001291CBF01207047022180F83D1000684C
:1017700040F2FF72C168C4F20002904241F00101E0
:10178000C16009DCB0F1804F12D040F20041C4F2D8
:10179000000188420CD012E042F60041C4F201017F
:1017A000884205D040F60001C4F20001884206D10B
:1017B000816801F00701062904BF00207047016815
:1017C00041F00101016000207047000090F83C20CA
:1017D000012A4FF002026CD080B580F83D20D0F88D
:1017E00000C04FF67772DCF8083023EA0202CCF82A
:1017F00008200B684F2B29DC1F2B45DD202B46D002
:10180000302B44D0402B40F0AF80D1F804E0C968C1
:10181000DCF82030DCF8202022F00102CCF8202077
:10182000DCF8182022F0F00242EA011123F00A024B
:1018300042EA0E02CCF81810CCF82020DCF8081090
:1018400041F0470121F0300128E000BF6F2B33DD6C
:10185000B3F5005F74D0B3F5805F21D0702B40F0FA
:101860008380D1E901E3C968DCF8082043EA0E036C
:1018700022F47F4243EA01211143CCF80810DCF83E
:10188000081041F0770109E00BB1102B6CD1DCF8A6
:10189000081021F07001194341F00701CCF808103D
:1018A0000022012180F83D10002180F83C10BDE8A5
:1018B00080401046704700BF502B21D0602B53D181
:1018C000D1F804E0C968DCF82030DCF8202022F0F0
:1018D0001002CCF82020DCF8182022F4704242EAF2
:1018E000013123F0A00242EA0E12CCF81810CCF815
:1018F0002020DCF8081041F0670121F01001CDE74D
:10190000D1F804E0C968DCF82030DCF8202022F0AF
:101910000102CCF82020DCF8182022F0F00242EA84
:10192000011123F00A0242EA0E02CCF81810CCF89A
:101930002020DCF8081041F0570121F02001ADE72C
:10194000D1E901E3C968DCF8082043EA0E0322F478
:101950007F4243EA01211143CCF80810DCF808105B
:1019600041F480419AE700BF01229AE770470000E6
:1019700010B5016804460869800744BFC8685FEA7B
:10198000807039D40869400744BFC8685FEA407076
:101990003ED40869000744BFC8685FEA007045D4B8
:1019A0000869C00644BFC8685FEAC0604AD40869D5
:1019B000C0071CBFC8685FEAC07051D10869000643
:1019C00044BFC8685FEA006052D40869400644BF5B
:1019D000C8685FEA406053D40869800646BFC8689B
:1019E0005FEA806010BD6FF0200220460A61BDE80A
:1019F0001040FFF7D9BD00BF6FF002000861012061
:101A000020778869800743D02046FFF7AFFF45E085
:101A10006FF00400086102202077886910F4407F8D
:101A200040D02046FFF7A2FF42E000BF6FF0080061
:101A3000086104202077C86980073DD02046FFF761
:101A400095FF3FE06FF01000086108202077C8691B
:101A500010F4407F3AD02046FFF788FF3CE000BFFB
:101A60006FF001000861204600F072FA2168A5E7D6
:101A70006FF0800008612046FFF794FD2168A4E71D
:101A80006FF040000861204600F068FA2168A3E783
:101A9000204600F05DF8204600F0EAF921680020B9
:101AA00020776FE7204600F053F8204600F0E0F979
:101AB0002168002020776CE7204600F049F8204696
:101AC00000F0D6F921680020207769E7204600F071
:101AD0003FF8204600F0CCF921680020207766E727
:101AE00080B586B00068B0F1804F4FF00000CDE9BE
:101AF0000400CDE9020001D006B080BD41F218001B
:101B0000C4F20200016841F008010160006802A906
:101B100000F00800019001984FF44060029002200C
:101B20000390059040F60040C4F20100FEF7FAFF72
:101B30000420C4F2010001684FF6FF42CFF6FF0215
:101B4000114041F0E06141F40071016006B080BDD8
:101B50007047000090F83C30012B04BF0220704712
:101B60004FEAB202032A00F2F1802DE9F043DFE8E8
:101B700002F003A53B7500BF036842F600461D6AEC
:101B80001A6AC4F2010622F001021A621A465C685F
:101B900052F818CFB3428E68D1F800E025F0020564
:101BA00045EA06050CD1CE68D1E9057824F44074E5
:101BB00025F00C0526F004063C43354344EA0804AE
:101BC0002CF0730747EA0E075C609F614F68096954
:101BD0005F631D629F6947F008079F619F6927F057
:101BE00004079F61A6E000BF036842F600461D6A35
:101BF0001A6AC4F2010622F480721A621A46D3F8F5
:101C000004C052F81CEFB3428E680C6825F40075CE
:101C100045EA06250FD1CE68D1E90598360240F293
:101C2000FF4725F44065BE4335432CF4405748EA4E
:101C3000090647EA061C2EF073072743C3F804C0C1
:101C4000DF614F680969DF631D62DF6947F00807DC
:101C5000DF61DF6927F00407DF616BE0036842F6AC
:101C60000047D3F820C01A6AC4F2010722F4805258
:101C70001A621A465C6852F81C5FD1F800E08E6860
:101C8000BB4204D14F6924F4804444EA87142CF405
:101C9000005747EA063725F4E64646EA0E265C601A
:101CA000DE614E6809691E641F62DF6947F40067E0
:101CB000DF61DF6927F48067DF613AE0036842F69D
:101CC00000461D6A1A6AC4F2010622F010021A6266
:101CD0001A46D3F804C052F8184FB3428E68D1F8B0
:101CE00000E025F0200545EA06150FD1CE68D1E9C0
:101CF00005986FF0400725F0C00507EA0616354342
:101D00002CF4406748EA090647EA860C24F4E644C6
:101D100044EA0E27C3F804C09F614F6809699F63B6
:101D20001D629F6947F400679F619F6927F4806780
:101D30009F6109021368194311600021BDE8F04357
:101D4000002280F83C200846704700BF0121002295
:101D500080F83C2008467047002804BF01207047E7
:101D600010B590F83D1031B9002180F83C100446C0
:101D700000F068F82046022180F83D10016840F22A
:101D8000FF740B68C4F2000442F6004CA142C4F296
:101D9000010C15DCB1F1804F1AD040F20042C4F2C0
:101DA0000002914214D0A14218DCB1F1804F1DD045
:101DB00040F20042C4F20002914217D01AE000BF84
:101DC000614505D040F60002C4F200029142EAD11A
:101DD000826823F070031343A142E6DD614505D01C
:101DE00040F60002C4F20002914203D1026923F4DA
:101DF00040731343846923F08002D0F804E0C36881
:101E0000224361450A60CB62C1F828E002D14269F1
:101E1000CCF8302001224A6180F8462080F83E202C
:101E200080F83F2080F8402080F8412080F8422050
:101E300080F8432080F8442080F8452080F83D2039
:101E4000002010BD0068B0F1804F18BF704781B00E
:101E500041F21C00C4F20200016841F0010101607E
:101E6000006800F001000090009801B07047000089
:101E700070470000C1B1042908D0082914BF4122CD
:101E80004022825C012A05D016E000BF3F22825C1E
:101E9000012A11D10222082910D0042914BF80F888
:101EA000412080F83F200BE090F83E20012A03D12A
:101EB000022280F83E2003E00120704780F8402095
:101EC000006801F01F010122036A8A4023EA02012F
:101ED0000162036A42F64441C4F201011A43A1F1CE
:101EE0004403984202620FD040F2FF71C4F2000135
:101EF000884213DCB0F1804F1CD040F20041C4F2A4
:101F00000001884216D01CE00A6842F400420A60D0
:101F100040F2FF71C4F200018842EBDD42F600415D
:101F2000C4F20101884205D040F60001C4F200016C
:101F3000884206D1816801F00701062904BF00200C
:101F40007047016841F00101016000207047000006
:101F500040F28000C2F2000001F0C0BB70470000F8
:101F6000FEE70000FEE70000FEE70000704700000B
:101F700070470000FEF7EABE7047000040F2A8106C
:101F8000C2F20000FFF7F4BCFEE7000080B58C460B
:101F900003464FF0000EC3E900C200F1080160469D
:101FA0000822A3F848E0BDE88040FEF7C5BB00006A
:101FB00040F21C01C2F200010988B0F952208A42A5
:101FC0001FDBB0F954208A421BDBB0F956208A424D
:101FD00017DBB0F958208A4213DBB0F95A208A4245
:101FE0000FDBB0F95C208A420BDBB0F95E208A423D
:101FF00007DBB0F960208A42A2BF012180F86C1093
:102000007047002180F86C107047000070B50546DD
:1020100041F2000440F6FF7000216FF0F022C4F29C
:10202000010428836985C5F81A20E962C5F81E20D5
:102030002963C5F822206963C5F82600FEF780FEF3
:102040000646FEF77DFE801BB0F57A6F54D800BFC0
:1020500020464FF400510022FEF76CFE2889298BA0
:10206000884238BF2883298D884288BF288568899F
:10207000698B884238BF6883698D884288BF6885CC
:10208000A889A98B884238BFA883A98D884288BFB8
:10209000A885E889E98B884238BFE883E98D8842C2
:1020A00088BFE885288A298C884238BF2884298EF1
:1020B000884288BF2886688A698C884238BF6884CD
:1020C000698E884288BF6886A88AA98C884238BFF2
:1020D000A884A98E884288BFA886E88AE98C8842AD
:1020E00038BFE884E98E884288BFE886FEF728FE7C
:1020F000801BB0F57A6FABD920464FF40051012216
:10210000BDE87040FEF716BEF0B581B0044600F0A1
:1021100041FB08B101B0F0BD40F21E07C2F200075A
:102120003888B4F95210B4F9542081424FF00001BC
:10213000B4F95630B4F95850C8BF012182424FF06B
:102140000002C8BF012242EA410100228342C8BF07
:102150000122890041EA420100228542C8BF0122D2
:10216000B4F95A30114400228342C8BF01228900C9
:10217000B4F95C3041EA420100228342C8BF012227
:10218000B4F95E30114400228342C8BF0122B4F981
:102190006030890083424FF0000041EA4201C8BF2D
:1021A0000120084484F86D00C0B2F021002601F03F
:1021B00093FAF02800F093803888B4F95210B4F9FB
:1021C000542081424FF00001B4F95630B4F9585010
:1021D000C8BF012182424FF00002C8BF012242EA7B
:1021E000410100228342C8BF0122890041EA420125
:1021F00000228542C8BF0122B4F95A30114400229E
:102200008342C8BF01228900B4F95C3041EA42012F
:1022100000228342C8BF0122B4F95E30114400227B
:102220008342C8BF01228900B4F9603041EA42010B
:102230008342C8BF0126881984F86D00C0B2F82116
:1022400001F04AFAF8284AD03888B4F95210B4F9A3
:10225000542081424FF00001B4F95630B4F958507F
:10226000C8BF012182424FF00002C8BF012242EAEA
:10227000410100228342C8BF0122890041EA420194
:1022800000228542C8BF0122B4F95A30114400220D
:102290008342C8BF01228900B4F95C3041EA42019F
:1022A00000228342C8BF0122B4F95E3011440022EB
:1022B0008342C8BF0122B4F96030890083424FF0E5
:1022C000000041EA4201C8BF0120084484F86D00C3
:1022D000C0B2FC21002601F0FFF9FC2806D194F8D9
:1022E0004E00013084F84E0001B0F0BD3888B4F9DA
:1022F0005210B4F9542081424FF00001B4F9563025
:10230000B4F95850C8BF012182424FF00002C8BF43
:10231000012242EA410100228342C8BF0122890012
:1023200041EA420100228542C8BF0122B4F95A3075
:10233000114400228342C8BF01228900B4F95C30F5
:1023400041EA420100228342C8BF0122B4F95E3053
:10235000114400228342C8BF01228900B4F96030D1
:1023600041EA42018342C8BF0126881984F86D0002
:10237000C0B20F2101F0B0F90F2851D03888B4F95C
:102380005220B4F9543082424FF00002B4F9567032
:10239000B4F95860C8BF012283424FF00003C8BFA0
:1023A000012343EA420200238742C8BF012392006F
:1023B00042EA430200238642C8BF0123B4F95A709F
:1023C0001A4400238742C8BF01239200B4F95C700D
:1023D00042EA430200238742C8BF0123B4F95E707A
:1023E0001A4400238742C8BF01239200B4F96070E9
:1023F000002142EA43028742C8BF0121501884F8F5
:102400006D00C0B21F2101F067F91F2808D02046D7
:1024100001F0EEF83F2101F05FF93F287FF47AAE3A
:1024200094F84F00013084F84F0001B0F0BD000077
:10243000F0B583B040F2DC05C2F200050446284640
:10244000012100F003FF94F828102084072900F2EE
:102450007B81DFE811F009007700950015017B0111
:1024600079016100810000BF2846FFF7A1FD95F8C2
:102470006C0040F6AC51012804BF012084F828000C
:10248000208CA57E081A208200B201F08CF94EF64D
:1024900079124AF60843C3F22612C3F69C7301F080
:1024A000ADF901F01FF90021C4F27021064601F0D8
:1024B00013FB002100281CBF0026C4F27026CCF2BA
:1024C0007021304601F01DFB002828461CBF002665
:1024D000CCF27026666101F051FC05463046294673
:1024E00001F08AFA01F016FC0746207628463146AC
:1024F00001F00CFD01F00EFC6076F9B2C0B2CDE93E
:10250000010140F24C10C2F2000002A901AA00F041
:102510002FFD03B0F0BD00BF6420029040F24C10CC
:102520000025C2F2000002A901AA019500F020FDD9
:10253000606A9728C0F00881072084F82800656247
:1025400003B0F0BD0020606285F86C00022084F8C2
:10255000280003B0F0BD00BF95F84B00012840F003
:10256000F38040F2DC00C2F2000000F013F9002812
:1025700040F0EA80002084F8280003B0F0BD00BFDE
:10258000A17E0646084601F025F943F23333C3F62F
:10259000E3734FF0333201F031F901F0D5F805461D
:1025A00040F6AC50801B208200B201F0FCF84EF6E1
:1025B00079124AF60843C3F22612C3F69C7301F05F
:1025C0001DF901F08FF80021C4F27021064601F0D8
:1025D00083FA002100281CBF0026C4F27026CCF22A
:1025E0007021304601F08DFA002828461CBF0026D5
:1025F000CCF27026666101F0C1FB054630462946E3
:1026000001F0FAF901F086FB0746207628463146AC
:1026100001F07CFC01F07EFB6076F9B2C0B2CDE93E
:10262000010140F24C10C2F2000002A901AA00F020
:102630009FFC606A6428C0F0878040F2DC00C2F230
:10264000000000F0A7F800287ED140F2DC00C2F2C2
:10265000000000F0D7F9002876D140F2DC05C2F284
:102660000005284600F026FA00286DD1002003213D
:10267000A5F84E0084F82810606203B0F0BD00BFDA
:10268000A17E0646084601F0A5F843F23333C3F6AF
:10269000E3734FF0333201F0B1F801F055F805461D
:1026A00040F6AC50801B208200B201F07CF84EF660
:1026B00079124AF60843C3F22612C3F69C7301F05E
:1026C0009DF801F00FF80021C4F27021064601F0D8
:1026D00003FA002100281CBF0026C4F27026CCF2A9
:1026E0007021304601F00DFA002828461CBF002654
:1026F000CCF27026666101F041FB05463046294662
:1027000001F07AF901F006FB0746207628463146AB
:1027100001F0FCFB01F0FEFA6076F9B2C0B2CDE93F
:10272000010140F24C10C2F2000002A901AA00F01F
:102730001FFC40F2DC05C2F200052846FFF7E4FC6E
:10274000284600F055FFF8B103B0F0BD95F84E00F3
:1027500095F84F1088420DD9642002900020019016
:1027600040F24C10C2F2000002A901AA00F000FCE5
:10277000062002E0814202D9052084F828000020CA
:10278000606203B0F0BD00BF042084F8280003B0ED
:10279000F0BD0000F0B581B040F21E070446C2F261
:1027A00000073888B4F95210B4F9542081424FF030
:1027B0000001B4F95630B4F95850C8BF0121824223
:1027C0004FF00002C8BF012242EA410100228342C9
:1027D000C8BF0122890041EA420100228542C8BFE8
:1027E0000122B4F95A30114400228342C8BF0122A9
:1027F0008900B4F95C3041EA420100228342C8BF3B
:102800000122B4F95E30114400228342C8BF012284
:10281000B4F96030890083424FF0000041EA420180
:10282000C8BF0120084484F86D00C0B2E72100262B
:1028300000F052FFE72800F0E1803888B4F9521028
:10284000B4F9542081424FF00001B4F95630B4F984
:102850005850C8BF012182424FF00002C8BF012278
:1028600042EA410100228342C8BF0122890041EAB5
:10287000420100228542C8BF0122B4F95A301144F6
:1028800000228342C8BF01228900B4F95C3041EACA
:10289000420100228342C8BF0122B4F95E301144D4
:1028A00000228342C8BF01228900B4F9603041EAA6
:1028B00042018342C8BF0126881984F86D00C0B266
:1028C000C32100F009FFC32800F098803888B4F9CC
:1028D0005210B4F9542081424FF00001B4F956303F
:1028E000B4F95850C8BF012182424FF00002C8BF5E
:1028F000012242EA410100228342C8BF012289002D
:1029000041EA420100228542C8BF0122B4F95A308F
:10291000114400228342C8BF01228900B4F95C300F
:1029200041EA420100228342C8BF0122B4F95E306D
:10293000114400228342C8BF0122B4F960308900EB
:1029400083424FF0000041EA4201C8BF0120084421
:1029500084F86D00C0B2FF21002600F0BDFEFF2804
:102960004CD03888B4F95210B4F9542081424FF059
:102970000001B4F95630B4F95870C8BF0121824241
:102980004FF00002C8BF012242EA41010022834207
:10299000C8BF0122890041EA420100228742C8BF24
:1029A0000122B4F95A30114400228342C8BF0122E7
:1029B0008900B4F95C3041EA420100228342C8BF79
:1029C0000122B4F95E30114400228342C8BF0122C3
:1029D0008900B4F9603041EA42018342C8BF012650
:1029E000881984F86D00C0B2812100F075FE81382D
:1029F000B0FA80F0400901B0F0BD00BF012001B085
:102A0000F0BD0000B0B50446FFF7C4FE00284FD16A
:102A100040F21E00C2F200000088B4F95220B4F95E
:102A2000543082424FF00002B4F956C0B4F958E075
:102A3000C8BF012283424FF00003C8BF012343EA0D
:102A4000420200238445C8BF0123920042EA4302A8
:102A500000238645C8BF0123B4F95A101A448142A5
:102A60004FF00001C8BF01219200B4F95C3042EA86
:102A7000410100228342C8BF0122B4F95E301144F3
:102A800000228342C8BF01228900B4F960300025CA
:102A900041EA42018342C8BF0125481984F86D000C
:102AA000C0B2F82100F018FEF82804BF0120B0BD24
:102AB0000020B0BDB0B50446FFF76CFE00284FD132
:102AC00040F21E00C2F200000088B4F95220B4F9AE
:102AD000543082424FF00002B4F956C0B4F958E0C5
:102AE000C8BF012283424FF00003C8BF012343EA5D
:102AF000420200238445C8BF0123920042EA4302F8
:102B000000238645C8BF0123B4F95A101A448142F4
:102B10004FF00001C8BF01219200B4F95C3042EAD5
:102B2000410100228342C8BF0122B4F95E30114442
:102B300000228342C8BF01228900B4F96030002519
:102B400041EA42018342C8BF0125481984F86D005B
:102B5000C0B21F2100F0C0FD1F2804BF0120B0BD7E
:102B60000020B0BD94B0FEF7FFF800240120CDE9AD
:102B70000F44CDE90D440A900E904FF4E0104FF44D
:102B80008031022513900AA80394CDE90144CDE9D0
:102B90000B14CDE91151FEF7EFFA28B1EFF31080D5
:102BA00072B600BFFEE700BF0F20CDE904054FF469
:102BB0008060CDE9070404A802210694FEF7FEF91F
:102BC00020B1EFF3108072B6FEE700BF4FF4004073
:102BD0000225029068460095FEF76EF920B1EFF3EA
:102BE000108072B6FEE700BF4FF0000941F21807EF
:102BF000CDE90C99CDE90A99C4F20207386840F68C
:102C0000000840F0100038603868C4F2010800F095
:102C1000100004900498386808F5006440F0200023
:102C2000386038684FF4005100F020000490049898
:102C30003868002240F00400386038684FF40056CD
:102C400000F0040004900498386840F008003860F0
:102C5000386800F00800049004982046FEF76AF8EF
:102C600040464FF4B85100224FF4B85BFEF762F8CB
:102C70000A960AAE4FF0010A20463146CDE90BA96B
:102C80000D95FDF74FFF40463146CDE90ABACDE933
:102C90000C95FDF747FF57F8040C002140F00100A8
:102CA00047F8040C57F8040C002200F001000A90C9
:102CB0000A980B20FEF7C4F80B20FEF7AFF840F29D
:102CC0008004C2F2000408F5E051204640F82C1FB1
:102CD0004FF480714FF46022C0E90191082180F81F
:102CE0000CA080F81490C2610161FDF725FC28B1A9
:102CF000EFF3108072B600BFFEE700BF072004F1BB
:102D00002C060C900AA93046CDE90A9AFDF752FB31
:102D100020B1EFF3108072B6FEE700BF01200A90E9
:102D200002250AA930460B95FDF744FB20B1EFF3CD
:102D3000108072B6FEE700BF0A9503250AA9304647
:102D40000B95FDF737FB28B1EFF3108072B600BF8B
:102D5000FEE700BF0A9504250AA930460B95FDF74A
:102D600029FB28B1EFF3108072B600BFFEE700BF69
:102D70000A9505250AA930460B95FDF71BFB28B1DE
:102D8000EFF3108072B600BFFEE700BF0A9506257C
:102D90000AA930460B95FDF70DFB28B1EFF3108023
:102DA00072B600BFFEE700BF0A9507250AA93046A4
:102DB0000B95FDF7FFFA18B1EFF3108072B6FEE73E
:102DC00008200B900AA930460A95FDF7F3FA18B1CE
:102DD000EFF3108072B6FEE740F2F0100021C2F26D
:102DE00000004FF08042472340F2E737CDE904115D
:102DF000CDE90F11CDE90D11C0E90023C0E902179B
:102E000001618161FEF7A8FF20B1EFF3108072B677
:102E1000FEE700BF40F2F010C2F2000004A9FEF786
:102E2000C5FB18B1EFF3108072B6FEE760200A9080
:102E30000020CDE90B000E9040F2F010C2F200002D
:102E40000AA90822FEF786FE20B1EFF3108072B6C1
:102E5000FEE700BF40F2F010C2F200000AA90C2207
:102E6000FEF778FE20B1EFF3108072B6FEE700BFE8
:102E700040F2F010C2F20000FEF732FE40F2A8105D
:102E8000002108F51052C2F20000472340F2E73754
:102E90000D91CDE90B11CDE90411C0E90023C0E982
:102EA0000217C0E904118161FEF7C0FB20B1EFF306
:102EB000108072B6FEE700BF4FF480500A9040F2D7
:102EC000A810C2F200000AA9FEF780FC20B1EFF3BF
:102ED000108072B6FEE700BF40F2A810C2F20000F8
:102EE00004A9FEF763FB18B1EFF3108072B6FEE79A
:102EF00040F2641240F2F013C2F20002C2F2000388
:102F00002046314600F0C2FB40F2DC00C2F2000075
:102F1000FFF77CF840F2A810C2F20000FEF71EFC9A
:102F20002046FFF785FAFBE710B5B3F800C004466A
:102F3000A0F804C058882260E080B3F806C00846B4
:102F4000A4F808C01989618199885A8904F10C0391
:102F500007C3026840F2E733D36247239362FEF768
:102F600089FFE0686169BDE81040FEF783BF00009B
:102F7000F0B581B00C4609681546B1F1FF3F064631
:102F800002DD0127002203E04842002701222060E1
:102F90003068B188FDF7CEFE3068F1883A46FDF71B
:102FA000C9FE2868B0F1FF3F02DD0127002203E0DF
:102FB000404200270122286030683189FDF7BAFEBF
:102FC000306871893A46FDF7B5FE2068642801DD56
:102FD000642008E0B0F1FF3F04DD2868642806DDC6
:102FE000642008E00020206028686428F8DCB0F144
:102FF000FF3F01DC00202860F06821680068C26A99
:10300000514348F21F52C5F2EB12A1FB02135909BA
:1030100021602968C36A5943A1FB02125109296042
:10302000216801642968C16301B0F0BDF0B581B0C9
:10303000068D078B0446BE4202D1002019E000BF76
:1030400020893146B04202D2B842394601D80846FA
:103050002181C01B4FF47A71484300F077FE05468A
:10306000F01B00F073FE0146284600F05DFD00F005
:1030700051FE668D678B2087BE4201D1002018E08B
:1030800060893146B04202D2B842394601D808467A
:103090006181C01B4FF47A71484300F057FE05462A
:1030A000F01B00F053FE0146284600F03DFD00F005
:1030B00031FEA68DA78B6087BE4201D1002018E0AB
:1030C000A0893146B04202D2B842394601D80846FA
:1030D000A181C01B4FF47A71484300F037FE0546CA
:1030E000F01B00F033FE0146284600F01DFD00F005
:1030F00011FEE68DE78BA087BE4201D1002018E0CB
:10310000E0893146B04202D2B842394601D8084679
:10311000E181C01B4FF47A71484300F017FE054669
:10312000F01B00F013FE0146284600F0FDFC00F005
:10313000F1FD268E278CE087BE4201D1002018E0E9
:10314000208A3146B04202D2B842394601D80846F8
:103150002182C01B4FF47A71484300F0F7FD054609
:10316000F01B00F0F3FD0146284600F0DDFC00F006
:10317000D1FD668E678CA4F84000BE4202D10020CB
:1031800019E000BF608A3146B04202D2B8423946E7
:1031900001D808466182C01B4FF47A71484300F0A1
:1031A000D5FD0546F01B00F0D1FD0146284600F094
:1031B000BBFC00F0AFFDA68EA78CA4F84200BE4277
:1031C00002D1002019E000BFA08A3146B04202D2ED
:1031D000B842394601D80846A182C01B4FF47A7123
:1031E000484300F0B3FD0546F01B00F0AFFD01467B
:1031F000284600F099FC00F08DFDE68EE78CA4F8DF
:103200004400BE4204D10020A4F8460001B0F0BD45
:10321000E08A3146B04202D2B842394601D8084667
:10322000E182C01B4FF47A71484300F08FFD0546E0
:10323000F01B00F08BFD0146284600F075FC00F005
:1032400069FDA4F8460001B0F0BD00002DE9F04F83
:1032500081B004460020C4E9190020460D46FFF75E
:10326000E5FE218F012D0FFA81FA40F0C580CAF5E5
:103270007A710FFA81FABAF1330FA4F8521004DB15
:10328000A16E1FFA8AF21144A166618FC1F57A71AD
:103290000FFA81FCBCF1330FA4F854100ADBD4E917
:1032A00019231FFA8CF14FF47A7701FB0722194496
:1032B000C4E91921A18FC1F57A710FFA81FEBEF11F
:1032C000330FA4F856100ADBD4E919231FFA8EF144
:1032D0004FF4FA6501FB05221944C4E91921E18F75
:1032E000C1F57A710FFA81F8B8F1330FA4F85810CC
:1032F0000ADBD4E919231FFA88F140F6B83501FB3F
:1033000005221944C4E91921B4F84010C1F57A71B5
:103310000FFA81F9B9F1330FA4F85A100ADBD4E996
:1033200019231FFA89F14FF47A6601FB062219442A
:10333000C4E91921B4F84210C1F57A720FFA82FB80
:10334000BBF1330FA4F85C200ADBD4E919361FFA6D
:103350008BF241F2883702FB07333244C4E9193259
:10336000B4F84420C2F57A731AB2332AA4F85E3056
:1033700009DBD4E9196793B241F2707503FB056567
:103380003B44C4E91953B4F846300025C3F57A73B9
:103390001EB2A4F8603040F21E03C2F200031F8880
:1033A0000020BA45C8BF0125BC45C8BF012028433D
:1033B0000025BE45C8BF012528430025B845C8BF24
:1033C000012528430025B945C8BF0125284300250C
:1033D000BB45C8BF0125284300250023BA42C8BF0A
:1033E00001252843BE42C8BF01231843332E00F0F5
:1033F000010080F2A580BDE0BAF1320FA4F852A01E
:1034000002DDA06E0844A066618F0FFA81FCBCF15A
:10341000330FA4F8541008DBD4E919024FF47A737F
:1034200001FB03001144C4E91901A18F0FFA81FEC9
:10343000BEF1330FA4F8561008DBD4E919024FF49B
:10344000FA6301FB03001144C4E91901E18F0FFA8B
:1034500081F8B8F1330FA4F8581008DBD4E9190249
:1034600040F6B83301FB03001144C4E91901B4F874
:1034700040100FFA81F9B9F1330FA4F85A1008DBA4
:10348000D4E919024FF47A6301FB03001144C4E943
:103490001901B4F842200FFA82FBBBF1330FA4F8F4
:1034A0005C2008DBD4E9190141F2883302FB0300F8
:1034B0001144C4E91901B4F844301AB2332AA4F80B
:1034C0005E3008DBD4E9190141F2707703FB070095
:1034D0001944C4E91901B4F9466040F21E00A4F889
:1034E0006060C2F2000007880020BA454FF000017A
:1034F000C8BF0120BC45C8BF012108430021BE450B
:10350000C8BF012108430021B845C8BF01210843B5
:103510000021B945C8BF012108430021BB45C8BFF0
:103520000121084300210023BA42C8BF01210843FA
:10353000BE42C8BF01231843322E00F0010019DD3E
:10354000D4E919510090B0B213465A46D346CA4640
:10355000C146F046E64641F6583C00FB0C5508448F
:10356000C4E919500098F446C646C846D146DA4622
:1035700093461A4684F84B00BA454FF000004FF0CE
:103580000001C8BF01206745B8BF012141EA4000E2
:1035900000217745B8BF0121800040EA41000021A9
:1035A0004745B8BF0121084400214F45B8BF01215C
:1035B000800040EA410000215F45B8BF0121084476
:1035C000002100239742B8BF0121800040EA41005A
:1035D000B742B8BF0123D4E919121844B1FBF2F184
:1035E00084F86D0088B2A4F8481001B0BDE8F08FEF
:1035F00010B5014640F21E00C2F200000088B1F989
:103600005230B1F9542083424FF00003B1F956E033
:10361000B1F95840C8BF012382424FF00002C8BF31
:10362000012242EA430200238645C8BF01239200DB
:1036300042EA430200238442C8BF0123B1F95A4041
:103640001A4400238442C8BF01239200B1F95C40B0
:1036500042EA430200238442C8BF0123B1F95E401D
:103660001A4400238442C8BF01239200B1F960408C
:103670004FF0000C42EA43028442C8BF4FF0010CF5
:103680006244D0B281F86D2010BD000070B540F2E8
:1036900008050160C2F200050446836055F8040B7A
:1036A00040F2DC06C2F20006E06030466260FEF7DF
:1036B0006DFCD4E9021240F24C10C2F200002B461D
:1036C000FFF732FC3C20A076002086F84B006062B9
:1036D00084F8280070BD000008407047416A01313D
:1036E0004162704721F0004201F00043A2F16052B4
:1036F000B2F5801F28BFD2F17F6C0BD95FEA001CA6
:1037000043EAC20242EB507018BF704728BF20F056
:1037100001007047B2F5801FBCBF184670474FEAE2
:10372000410C1CF5001F02D2084600F0E9BB70B541
:1037300000F00EF900000089FFF7F6BF4FF00040DF
:10374000A0F58000704700004FEA41034FEA535351
:10375000A3F58063D3F11E03C8BFD3F1210C0CDDA8
:103760004FF0004242EAC12242EA505232FA03FCD0
:103770008CEAE17CACEBE1707047102BC4BF0020F9
:10378000704703F5787CBCF1FF3F04D06FF0004236
:1037900082EA2100704770B500F0DAF8499224807F
:1037A00000207047F2E710F0004248BF4042B0FAF4
:1037B00080F310FA03F10AD0C3F11D0303F580630F
:1037C00002EB03524FEA415002EBD12170474FF018
:1037D00000007047B0FA80F310FA03F10AD0C3F189
:1037E0001D0303F580634FEA03524FEA415002EB99
:1037F000D12170474FF000007047000070B5DFF82E
:1038000048C11CEA111E1EBF1CEA13159EEA0C0FCC
:1038100095EA0C0F00F06F8081EA03044EEAD47E33
:10382000AE4421EA4C1123EA4C1341F4801143F4D5
:103830008013AEF17F7EA1FB024CA0FB036536191D
:1038400055EB0C05A1FB034C4CF10003A0FB021C43
:1038500016EB0C06654153F10003094218BF46F010
:10386000010613F4007F0BD14FEA03314FEA053014
:1038700041EA155140EA165034036FF003020AE0A2
:103880004FEAC3214FEAC52041EA555140EA56505C
:10389000F4026FF0020202EB2E4201EB025585EAC0
:1038A000CE710AD05FEA440C18BF24F0004450F1F6
:1038B000000041F1000120EAD47040F2FE7C624534
:1038C00000D270BDA84214BF4FF080444FF0404476
:1038D000002E08BF0024BEF1806FA8BFA1F1C04137
:1038E000BDE8704080F2828001F1C04101F00041EA
:1038F0004FF0000070470CEA13159EEA0C0F18BF3A
:1039000095EA0C0F06D081EA030E4FF000000EF08E
:10391000004170BD00F01CF88900013E00F007B8BE
:1039200000F009B84FEA430C5FEA5C5C08D081EA1A
:10393000030100F05BB84FEA410C5FEA5C5CF6D132
:1039400002494FF0000070470000FF070000F87FB9
:103950000EF1020E2EF0030E5EF8046B364205D413
:10396000012A43EB030515F5001F12D8012841EB8E
:10397000010C1CF5001F0CD80ED14FEAD17C0CEBCA
:103980004C0C0CF1020C15F5001F08BF4CEBD37C5E
:1039900004E04FF0080C01E04FEAD37C0CEB4C053F
:1039A00026FA05F606F00706B6F1040C06D20EEB71
:1039B000860CBDE870404CF0010C6047DFE80CF06D
:1039C000090B02024FF00041A1F500214FF0000069
:1039D00070BD19461046012851EB010418BFD4F5FB
:1039E000001484BF002001F0004170BD0808A0F55C
:1039F00000114FEA3101704790EA010F48BF81F092
:103A0000004100F18A82421A3CBF801A89184FEAAD
:103A1000D052A2EBD1534FF07F4C1CEA410F18BF9C
:103A20009CEA026F00F03B804FF0004C4CEA002013
:103A30004CEA012121FA03FC10EB0C0C1ED202F11E
:103A4000FF325FEA1C2040EBC25038BF70471CF0C9
:103A50007F0F4FEA400C18BFBCF17F4F38BF704753
:103A6000C3F12003994008BF20F00100BCF17F4F53
:103A700038BF7047A0F1C04000F042BA4FEA3C00A6
:103A8000000A40EBC25028BF1CF0FF0F4FEA400C69
:103A9000E6D018BFBCF17F4F38BF7047EAE79CEA19
:103AA000026F05D010EA5C0F08BF00F000407047BD
:103AB00010B500F0DFF900BF64FBBE3E10B500F0AA
:103AC000F5F80CBF0120002010BD10B500F0EEF895
:103AD00014BF0120002010BD10B500F063F98CBFA9
:103AE0000120002010BD10B500F05CF92CBF0120B2
:103AF000002010BD10B500F089F994BF012000200E
:103B000010BD10B500F082F934BF0120002010BDB7
:103B1000401058BFC0F14040491058BFC1F140416A
:103B20008142EFF3008070474FF47F0C1CEAD01203
:103B30001EBF1CEAD11392EA0C0F93EA0C0F00F09F
:103B4000858090EA010F48BF42F4807240F4000C77
:103B500041F400002CF07F4120F07F4000B5A2EB43
:103B6000030281420FF2081CACEB504E9EF800E0BD
:103B7000C0F100004FEA4E0E00FB0EFC38BF4900BA
:103B80004FEA2C1C0CFB0EF34FEACE1E0EEB635ECD
:103B90004FEA112C0EFB0CFC4FEAC1214FEA1C53DB
:103BA00000FB031102F5FA024FEA112C0EFB0CFC8C
:103BB0004FEA01314FEADC4C00FB0C1142EB224290
:103BC000C14228BF09184CEB03335DF804EB10EB3E
:103BD000410143EBC250B2F57C0F38BF704729D585
:103BE00012F0F00F1CBF00F1C04000F00040704721
:103BF000008182838485868788898B8C8D8E8F91C6
:103C00009293959697999A9C9D9FA0A2A3A5A7A8E9
:103C1000AAACAEB0B2B3B5B7B9BCBEC0C2C5C7C915
:103C2000CCCED1D4D7D9DCDFE2E6E9ECF0F3F7FA79
:103C3000FE0000004FEA400C0CF1807CBCF17E4F8E
:103C400028BF7047B0F1C04000F05AB90CEAD11358
:103C500090EA010F48BF42F48072624538BF634565
:103C600007D213F47F0F16D080EA010000F0004065
:103C7000704710B500F0FEF8097EFC3E00F005B874
:103C800080EA010000F00040704780EA010000F087
:103C9000004000F035B912F47F0F04BF02487047AE
:103CA00080EA010000F02CB90000C07F50EA010C4E
:103CB00000F113801CF5000F58BFBCF5000F01D4B4
:103CC0008842704707D710F5000F58BF11F5000F55
:103CD00015D488427047894270471CF5000F04D5FF
:103CE000BCF5000FF7D5814270474FF0807C1CEB8C
:103CF000400F38BF1CEB410F01D28142704710B515
:103D000000F0B8F8922449004FF000504FF0805175
:103D1000FFF7FEBE41000B0ED3F19E0208D950F40E
:103D200000034FEA032323FA02F048BF40427047E2
:103D300010B500F09FF800BF499224800020704722
:103D40006FF0004282EA20007047000010F000414E
:103D500048BF4042B0FA80F310FA03F2C3F19D036A
:103D60000BD051EAC35101EB1220530638BF704704
:103D700000F1010008BF20F001007047B0FA80F3A5
:103D800010FA03F2C3F19D030AD0D90501EB12200A
:103D9000530638BF704700F1010008BF20F0010052
:103DA0007047000050EA010C00F113801CF5000F71
:103DB00058BFBCF5000F01D48842704707D710F5F3
:103DC000000F58BF11F5000F15D488427047894283
:103DD00070471CF5000F04D5BCF5000FF7D58142E4
:103DE00070474FF0807C1CEB400F38BF1CEB410F3D
:103DF00001D28142704710B500F03CF8922449008E
:103E00004FF080504FF00051FFF782BE50EA010C96
:103E100000F113801CF5000F58BFBCF5000F01D452
:103E20008842704707D710F5000F58BF11F5000FF3
:103E300015D488427047894270471CF5000F04D59D
:103E4000BCF5000FF7D5814270474FF0807C1CEB2A
:103E5000400F38BF1CEB410F01D28142704710B5B3
:103E600000F008F8922449004FF000504FF08051C4
:103E7000FFF74EBE0EF1020E2EF0030E5EF8044B5D
:103E8000244204D44FEA4102B2F17F4F11D84FEAE5
:103E90004003B3F17F4F0CD80ED14FEAD07C0CEB2E
:103EA0004C0C0CF1020CB2F17F4F08BF4CEBD17CF3
:103EB00004E04FF0080C01E04FEAD17C0CEB4C031E
:103EC00024FA03F404F00704B4F1040C06D20EEB58
:103ED000840CBDE810404CF0010C6047DFE80CF0AA
:103EE000070802024FF00040A0F5800010BD084610
:103EF000420018BFD2F1807288BF00F0004010BDB0
:103F0000FF2141EAD050C0057047000090EA010F40
:103F100048BF81F000413FF576AD421A04D882F0E7
:103F20000042A0EB020011444FEAD052A2EBD15361
:103F30004FF07F4C1CEA410F18BF9CEA026F4AD039
:103F40004FF0004C4CEA00204CEA012121FA03FC1E
:103F5000B0EB0C0C0FD412F0FE0F36D05FEA4C0021
:103F60001DD5001240EBC25038BF70471CF03F0F08
:103F700018BF70470BE05FEA1C20A2F1010240EB82
:103F8000C25038BF70471CF07F0F18BF7047C3F195
:103F90002003994014BF401E20F0010070474FEAF3
:103FA0001223800808BF7047B0FA80FCA2EB0C0215
:103FB000CCF1280C60FA0CF093EA122F04BF00EB4E
:103FC000C25070474FEAC3707047130A5FEADC10B3
:103FD00008BF7047F6E79CEA026F04D010EA5C0F56
:103FE00008BF0020704710B5FFF744FF40DFF63EE2
:103FF00081F0004070470000000000000000010256
:10400000030406070809010202030405060708095C
:104010000A0B0C0D0E0F1010384000080000002095
:104020002000000050010008584000082000002037
:1040300020080000700100080100000010000000CE
:1040400000080140000100020800000400100C00FC
:084050000024F40058022C01C9
:04000005080000ED02
:00000001FF
